:020000040000FA
:040000000128EE2FB6
:100078000800080001300800472008000030080088
:100088000030BA2308002930672208001630210002
:10009800970008007108C2007008C100080021001C
:1000A8009D01D0309E000800AC20D0204B21532069
:1000B8000800192190204A205820080071082000C3
:1000C800C4007008C3000800640080010131890B76
:1000D80069280034FE0012001E00FE0B6F28003451
:1000E800F0007008083E8600870101150800F0003E
:1000F8007008083E8600870101110800F0007008AA
:10010800083E8600870181140800F0007008083E48
:1001180086008701811008007830210099009A0133
:100128002200960108002508F0007008F100710807
:10013800031908000130F1029B28D5008B1FA9285C
:100148008B135508C5248B1708005508C5240800CB
:10015800F9017908B7200130F8007808F90779081B
:10016800031D0800AD28F7007708EA200930F600DB
:100178007608F000770829214B3E89200800F00016
:1001880070080319CE287008083E86008701010808
:100198000139080000300800A430F0008130F10077
:1001A8001230F2000030F300293023230030D4222B
:1001B80008005D206E30F0000130F10062208030D0
:1001C800F0000130F1004E200921E828F5007508FB
:1001D800031D08000930F4007408F000750829218F
:1001E800533E8600870101140800231CFD2823368E
:1001F80003292336F0007008A3002308B43AF0005E
:100208007008A30023080F3908002000A201A20AE1
:100218003A21003A03190800442042202000E70050
:100228006708A2004B214020080022008C013930C9
:1002380021008C00333023008C0024008C01210025
:100248009517103022009D000800F300F201731C7E
:1002580031297008F1007108F2070310F00D03103E
:10026800F30C7308031D2B2972080800DD015D08D3
:10027800F823003A03194229003008000130DC0055
:100288005C08DD075D0803193B29013008004B3085
:10029800F1007108F2004B30F10072087102031C82
:1002A8000800720889200930F1007108F2074F2907
:1002B800F5007508031D6C290930F4007408F00076
:1002C80075082921533E86008701010C0139080071
:1002D80000300800722922000C1508007008F1008F
:1002E800F2017208003A03197A297F297108003A45
:1002F80003196F297F290800842922000C1108009E
:100308007008F100F2017208003A03198C2991294A
:100318007108003A0319812991290800F000700A30
:1003280086008701403F2000C700413FC800700891
:10033800033E86008701403FC500413FC6000800D4
:100348000034003400340034003400340034003405
:1003580000340034003400340034003400340034F5
:1003680064340034F7007708031DC8290930F60003
:100378007608F00077082921513E86008701403F22
:10038800F400413FF5000800F401F5010800710888
:10039800803AF20080307202031DD42901307002C5
:1003A800031808007009F2007109F300F20A031932
:1003B800F30A7208F0007308F1000800F0008B1FC0
:1003C800F0298B137008063E860087012008C03F7D
:1003D8002108C13F8B1708007008063E8600870178
:1003E8002008C03F2108C13F0800D4005408031D5D
:1003F800082A540847227308FC007208FB00710899
:10040800FA007008F90008000030FC000030FB001A
:100418000030FA000030F90008007F340334253436
:1004280006342B3405343C3400343C340034AF34C7
:1004380002348A3402343D34003400348A340234BD
:10044800AF3402342034003400340034F500750829
:10045800031D3E2A750EF039750775072C3E860078
:100468008701403FF000413FF100423FF200433F27
:10047800F30008000030F3000030F2000030F10013
:100488000030F0000800F800780EF0397807780797
:10049800303E86008701403FF400413FF500423F6F
:1004A800F600433FF7000430F736F60CF50CF40C71
:1004B800890B582A7708F3007608F2007508F100CE
:1004C8007408F0000800F2007208023E86008701F6
:1004D80002300106031D080072080C3E86008701E1
:1004E8000130810741310318810A72080C3E8600E9
:1004F800870116000104031D080072080C3E8600DF
:100508008701FF30C03FFF30C13F080022008C1632
:10051800210011309D000530890B902A00007130B0
:100528009D0022008C1221008C3084000030850050
:100538000C30860001308700113080169D00003293
:1005480000320032003221009D14003200002200E7
:100558008C168012080022008C12210011309D0098
:100568000530890BB52A000071309D0022008C16D9
:1005780021008C308400003085000C30860001306A
:100588008700113080169D000032003200320032A0
:1005980021009D140032000022008C1280120800F5
:1005A800F100710EF03971077107293EF0007008EB
:1005B800F2007208023E8600870181017208073E38
:1005C800860087010030C03F0030C13FC23FC33FB3
:1005D80072080C3E860087010030C03FC13F720898
:1005E8000E3E860087010030C03FC13F0800FC0076
:1005F8007C0A860087010108B6217408F80075088E
:10060800F900FA01FB017C08073E8600870178089B
:10061800C03F7908C13F7A08C23F7B08C33F7C08C6
:10062800073E86008701053081354131810D413112
:10063800810D4131810D7D31890B182B0800F8009F
:100648007108F6007008F5007808F4007408F900DD
:100658000130F2020030F33B720A0319730A0319DE
:10066800080075088400760885000008F4007408FE
:10067800F7000130F5070030F63D7708F4007908F7
:1006880086008701740881000130F4007408F907B6
:100698002C2BD6000530D4005408D5005608C320AA
:1006A800003A031D602B003008000130D5025508C0
:1006B800031D602BFC30080056083824003A031D3F
:1006C800592B5608063E86008701403F2002F0005D
:1006D800413F213BF100CB21003071026530031905
:1006E8007002031C7B2B200056087420572B200017
:1006F80056087B20572B55080C3E86008701403F43
:10070800D600413FD700003057020930031956027E
:100718000318912B5508FB22932B5508A22520007E
:1007280055080C3E860087010130810741310318C6
:10073800810A55080C3E86008701403FD600413F9C
:10074800D70000305702103003195602031C080066
:100758005508023E860087018101810A55080C3E32
:10076800860087010030C03FC13F0800E500650EE4
:10077800F03965076507293EE4006408E600660A63
:100788008600870101085C21003A0319080020004F
:10079800660A8600870101083E20003A031908000E
:1007A8006608A1206508E9266608023E86008701DA
:1007B80003300102031CE52B660886008701010847
:1007C800D42220006608E4006408D5006608023ECA
:1007D8008600870101353B3E86008701413F8A003C
:1007E800403F0A0083310800D9000930D700570874
:1007F800F000590829214B3E2000D8005808DB009A
:100808005B084D23D7005708DA00192C5B08C32072
:10081800003A0319362C5B08E2215B08822059084C
:10082800D7005708F0003D20362C5A08D700D801C9
:10083800D71BD8035808003A0319262CFF3A031986
:100848002B2C362C5708003A03190A2C362C57083B
:10085800FD3A0319362C033A0319362C013A0319C9
:10086800362C362C5A080800FD00FC0121001D0812
:10087800F8007808F9001E08F8007808FA005320F4
:1008880000308B1B0130FB007D0892217D0886001B
:1008980087010108F8007808A7007D08860087010D
:1008A800453FA600A001A1012810F920F80078080A
:1008B800A500A001A101A8108B137C247B0C031CAC
:1008C8008B1303188B17972021009D18682C200084
:1008D800281C602C790821009D007A089E002000C1
:1008E800A81C7A2CFA30F8007808FC007C0808006C
:1008F80021001C08F7001B08F60020002818080033
:100908002608031D8C2CBF2C8A229D2CAF229D2CDF
:1009180026080139F400F5017508003A0319952CE9
:100928009D2C7408003A0319882C013A03198A2C63
:100938009D2C0930F4007408F000200027082921B4
:10094800503E860087010108200026060319BC2CAA
:10095800261CB82C0030F4000430F5007608740228
:10096800F6007708753BF7007608A0077708A13DE1
:100978000130A60208007608A0077708A13D2814D0
:100988000800D4005408023E8600870101080319B4
:100998000C2D5408033E86008701403FF800413F74
:1009A800F900423FFA00433FFB000130FB36FA0CE6
:1009B800F90CF80C890BDA2C5408033E86008701E1
:1009C8007808810241317908813B41317A08813BBD
:1009D80041317B08813B7D31540A8600870101083B
:1009E800B6217408F8007508F900FA01FB01200027
:1009F8005408033E86008701780881074131790849
:100A0800813D41317A08813D41317B08813D0800B3
:100A1800540A860087010108B6217408F800750891
:100A2800F900F835F90D7808FA007908FB00FC019F
:100A3800FD0120005408033E860087017A08C03F64
:100A48007B08C13F7C08C23F7D08C33F08005508AA
:100A58000C3E86008701403FD600413FD700033057
:100A68005702E83003195602031C4D2D550886001D
:100A780087010108D4222000550886008701010853
:100A8800D6005608F00042088A0041080A0085315D
:100A980008005508103E860087010108D60001307D
:100AA8000310D61B0314D60C890B542D5508103E81
:100AB8008600870156080102D700D801031CD80315
:100AC800811BD8032000D61BD80A200055080B3EEE
:100AD800860087010108D900DA01D91BDA035A0810
:100AE800803ADB005808803A5B02031D7D2D5708C9
:100AF80059020318080020005508023E86008701A5
:100B08008101810A55080C3E860087010030C03FEC
:100B1800C13F55080E3E86008701FF30C03FFB30BD
:100B2800C13F5508860087010108D6005608F00025
:100B380042088A0041080A0085310800F4008B1F2A
:100B4800E62D8B137408073E86008701403FF000AE
:100B5800413FF100423FF200433FF3000430F336D7
:100B6800F20CF10CF00C890BB32D7408073E8600CB
:100B780087017008810241317108813B4131720857
:100B8800813B41317308813B7D317408033E860007
:100B98008701403FF000413FF100423FF200433FF0
:100BA800F3007408073E8600870170088107413109
:100BB8007108813D41317208813D41317308813DA1
:100BC8008B1708007408073E86008701403FF00035
:100BD800413FF100423FF200433FF3000430F33657
:100BE800F20CF10CF00C890BF32D7408073E86000B
:100BF80087017008810241317108813B41317208D7
:100C0800813B41317308813B7D317408033E860086
:100C18008701403FF000413FF100423FF200433F6F
:100C2800F3007408073E8600870170088107413188
:100C38007108813D41317208813D41317308813D20
:100C4800080055088600870101082A227008D60086
:100C58007108D7007208D8007308D90055088600B3
:100C680087010108F9217908D6027A08D73B7B0861
:100C7800D83B7C08D93B5908E0005808DF005708E2
:100C8800DE005608DD005508103E86008701010881
:100C9800D600D701D61BD703D609D709D60A031918
:100CA800D70A5608D8005708D9000030D91BFF309A
:100CB800DA00DB006008803ADC005B08803A5C02FE
:100CC800031D702E5A085F02031D702E59085E021C
:100CD800031D702E58085D020318972E55080C3E08
:100CE800860087010130810741310318810A5508C0
:100CF8000C3E86008701403FD600413FD7000030B8
:100D08005702213003195602031CCA2E55080C3EFF
:100D1800860087010030C03FC13F55088600870123
:100D28000108D422CA2E5508103E86008701010802
:100D3800803AD60055080B3E860087010108803AA4
:100D4800D6020318C32E0230D6005508023E86008C
:100D580087015608810055080C3E8600870100303F
:100D6800C03FC13F5508860087010108D6005608D4
:100D7800F00044088A0043080A008631CA2E550844
:100D88000C3E860087010030C03FC13F2000550857
:100D98000E3E860087010130810741310318810A20
:100DA80055080E3E860087011600803AD6001600C8
:100DB800D604031D080055080E3E86008701003042
:100DC800C03FC13F5508A2250800E30063082A2256
:100DD8007008D5007108D6007208D7007308D800CB
:100DE8006308F9217908D5027A08D63B7B08D73BF6
:100DF8007C08D83B5808E2005708E1005608E00094
:100E08005508DF005F08D5006008D6006108D700E4
:100E18006208D800630EF039630763073A3E86001C
:100E28008701010A1B2FD837D70CD60CD50C890B94
:100E3800172F5808E2005708E1005608E000550847
:100E4800DF00E21B3C2F6208031D342F6108031DDD
:100E5800342F6008031D342F80305F02031C3C2FA1
:100E68000030E2000030E1000030E0007F30DF00B9
:100E7800E21F502F80305F02FF30603BFF30613B44
:100E8800FF30623B0318502FFF30E200FF30E100D3
:100E9800FF30E0008030DF00E21F5B2F630EF03987
:100EA80063076307343E86008701810108005F08F5
:100EB800803AD500630EF03963076307393E860030
:100EC80087010108D60003300310D61B0314D60C83
:100ED800890B682F5608803AD50203188B2F630EAA
:100EE800F03963076307343E860087010108803ABA
:100EF8007F3E031C0800FF30D500630EF0396307FE
:100F08006307343E86008701550881070800630E91
:100F1800F03963076307343E860087010108D5006E
:100F280002300310D51B0314D50C890B952F630EC3
:100F3800F03963076307343E86008701550881024C
:100F4800630EF03963076307343E860087010108A2
:100F5800D500D601D51BD6037F30D70055085702D8
:100F6800D80056090318890AD9005808DA00590820
:100F7800DB000030DB1BFF30DC00DD006208803A5C
:100F8800DE005D08803A5E02031DD42F5C08610212
:100F9800031DD42F5B086002031DD42F5A085F027B
:100FA8000318E22F5F08D500630EF0396307630763
:100FB800343E860087015508810708007F30D50038
:100FC800630EF03963076307343E860087015508CE
:100FD8008100080011308400823085003B30860093
:100FE8000030870019306E202030840000308500E2
:080FF8001B3068202000DD28F9
:020000040001F9
:04000E00FCFDFFFFF7
:00000001FF
