:020000040000FA
:100000000C28572A592A692A7E1480318B1A0B1D15
:100010000A28EC257E1009000D2834308400853034
:1000200085003B308600003087001330702620307A
:100030008400003085001B3076267E1020006C2D59
:10004000DC00C4247308DB007208DA007108D900F0
:100050007008D8005C0820257608D8027708D93BBC
:100060007808DA3B7908DB3B5C0EF0395C075C070B
:100070003A3E86008701010A4128DB37DA0CD90CA9
:10008000D80C890B3D28DB1B57285B08031D522821
:100090005A08031D52285908031D5228803058025F
:1000A000031C57287F30D800D901DA01DB01DB1FA0
:1000B000692880305802FF30593BFF305A3BFF30EF
:1000C0005B3B03186928FF30DB00DA00D900803081
:1000D000D800DB1F70285C0EDC208701810108003E
:1000E0005808803ACE005C0EF0395C075C07393E58
:1000F000860087010108CF0003300310CF1B0314D3
:10010000CF0C890B7D284F08803ACE025C0E031875
:100110009428DC2087010108803A7F3E031C0800F8
:100120005C0EDC2081030800DC2087010108CE0082
:1001300002300310CE1B0314CE0C890B99285C0EE1
:10014000DC2087014E0881025C0EDC200108CE0015
:10015000CF01CE1BCF037F30D0004E085002D1001C
:100160004F090318890AD2005108D3005208D4005D
:100170000030D41BFF30D500D6005B08803AD70092
:100180005608803A5702031DCF2855085A02031D0E
:10019000CF2854085902031DCF28530858025C0E7B
:1001A0000318D728DC208701580881070800DC20C5
:1001B0007F30870181000800F0395C075C07343E1E
:1001C000860008008321C4247308D8007208D70071
:1001D0007108D6007008D500832120257608D50245
:1001E0007708D63B7808D73B7908D83B7C08103E87
:1001F000860087010108CE00CF01CE1BCF03CE09B8
:10020000CF09CE0A0319CF0A4E08D0004F08D100FB
:100210000030D11BFF30D200D3005808803AD40000
:100220005308803A5402031D1F2952085702031D28
:100230001F2951085602031D1F29500855027C082A
:1002400003183A290C3E860075210C3E8600870172
:10025000403FCE00413FCF0000304F022130031914
:100260004E027C08031C5C296F217C088600010873
:10027000A8245B29103E860087010108803ACE0041
:100280007C080B3E86000108803ACE027C080318E9
:100290005929023E8600023081007C086F217C08CB
:1002A00086000108F00044088A0043080A008131F2
:1002B0005B290C3E7D217C080E3E860075210E3E9A
:1002C000860087011600803A2000CE001600CE047A
:1002D000031D08007C080E3E7D217C08972A0C3EF9
:1002E00086000030C03FC13F080001308701810710
:1002F00041310318810A7C0808008600003087011C
:10030000C03FC13F08007C08860087010108080043
:100310007C080C3E86008701403FCE00413FCF0065
:1003200003304F02E83003194E027C08031CA22957
:1003300086000108A8247C0886008701E7210A00BE
:1003400081310800103E860087010108CE0001308F
:100350000310CE1B0314CE0C890BA8297C08103E79
:10036000860087014E080102CF00D001031CD00394
:10037000811BD0032000CE1BD00A7C080B3E8600D8
:1003800001082000D100D201D11BD2035208803ACB
:10039000D3005008803A5302031DD0294F08510260
:1003A000031808007C08023E860087018101810A4B
:1003B0007C086F217C080E3E8600FF30C03FFB307A
:1003C000C13F7C088600E7210A008131080001084E
:1003D000F000200042088A0041080800FD00023EAB
:1003E00086008701010803192B2A7D08033E860039
:1003F000403FF700413FF800423FF900433FFA0019
:10040000FA36F90CF80CF70C7D08033E86007708E5
:10041000810241317808813B41317908813B41318A
:100420007A08813B7D31462247257308F70074081E
:10043000F800F901FA017D08033E8600870177087C
:10044000810741317808813D41317908813D413151
:100450007A08813D0800462247257308F700740892
:10046000F800F735F80D7708F9007808FA00FB0175
:10047000FC017D08033E860087017908C03F7A08A9
:10048000C13F7B08C23F7C08C33F08007D0A86004D
:1004900087010108080021001C08F6001B08F50070
:1004A0002000281808002608031D5B2A912A4324EF
:1004B000732A1E24732A26080139F300F4017408F4
:1004C0008400013004020318732A803103300407CA
:1004D000820073088400023004020318732A8031FA
:1004E0000130040782000930F000200027080726A9
:1004F0004A3E8600870101082000260603198F2A3C
:10050000261C8B2A0430F301F40075087302F500F1
:100510007608743BF6007508A0077608A13DA6038F
:1005200008007508A0077608A13D28140800F4000B
:100530008B1F9E2A8B13A1228B1708007408A122FF
:100540000800073E86008701403FF000413FF10070
:10055000423FF200433FF3000430F336F20CF10C5B
:10056000F00C890BAD2A7408073E860087017008DD
:10057000810241317108813B41317208813B413137
:100580007308813B7D317408033E86008701403F3C
:10059000F000413FF100423FF200433FF300740896
:1005A000073E86007008810741317108813D413165
:1005B0007208813D41317308813D0800D200093045
:1005C000F00052080726453E2000D4001A23D3002D
:1005D000FB2A54081E26003A0319182B54087E25BE
:1005E0005408F0007008083E860087018114520804
:1005F000F000AC26182B5308D000D101D01BD1033A
:100600005108003A0319082BFF3A03190D2B182B38
:100610005008003A0319E92A182B5008FD3A03192B
:10062000182B033A0319182B013A0319182B182B0E
:1006300053080800CF000530CE004F081E26003AB0
:1006400003190034262BCE0B262BFC344F085523E0
:10065000003A031D232B2108F1002008F0004F0869
:10066000063E86008701403FFC00413FFD007C08BC
:10067000F0027D08F13BF52400307102653003196A
:100680007002031C4C2B20004F08F0007008083E3D
:10069000860087010115003420004F08F000700823
:1006A000083E8600870101110034FB00FA01210099
:1006B0001D08F7001E08F8008C2600308B1B013047
:1006C000F9007B08AD267B08860087010108200021
:1006D000A7007B088600453FA600A001A1012810C5
:1006E0003E26A500A001A101A8108B134B22790C76
:1006F000031C8B1303188B17692621009D187D2B73
:100700002000281C752B770821009D0078089E008A
:100710002000A81C8D2BFA30FA007A080800DD00B2
:100720005D0EF0395D075D07293EDE00C223DE2540
:10073000003A031908002000C223AF26003A03192B
:1007400008005E08512620005D0820205E08023E59
:100750008600033087010102031CB22B5E0886006D
:100760000108A82420005E08FC005E08023E860006
:10077000870101353B3E8600413F8A00403F0A0029
:10078000833108005E0A8600870101080800F12312
:10079000EB23093003194E027C080318D12BF723F1
:1007A000D22B97227C080C3E8600013087018107FE
:1007B00041310318810AF1232000EB231030031983
:1007C0004E02031C08007C08023E86008101810A5B
:1007D0007C086F210800CE00413FCF0000304F025F
:1007E00008007C080C3E86008701403F0800FB00A3
:1007F0007B0A86008701010847257308F700740803
:10080000F800F901FA017B08073E860087017708A6
:10081000C03F7808C13F7908C23F7A08C33F7B08D0
:10082000073E8600053081354131810D4131810D12
:100830004131810D7D31890B132C080022008C126F
:10084000210011309D000530890B242C00007130EF
:100850009D0022008C1621008C3084000030850021
:100860000C30860001308700113080169D00003268
:1008700000320032003221009D14003200002200BC
:100880008C128012080022008C16210011309D006D
:100890000530890B492C000071309D0022008C121C
:1008A00021008C308400003085000C30860001303F
:1008B0008700113080169D00003200320032003275
:1008C00021009D140032000022008C1680120800C6
:1008D000F7007108F5007008F4007708F80001309F
:1008E000F2020030F33B720F782C730A03190800F0
:1008F00074088400750885000008F600F40A0319DE
:10090000F50A78088600870176088100F80A6F2CBE
:10091000F200023E8600023087010106031D080036
:1009200072080C3E86000130810741310318810AAC
:1009300072080C3E8600870116000104031D0800A2
:1009400072080C3E8600FF308701C03FC13F08009F
:10095000F000700EF03970077007293EF100023E7A
:100960008600870181017108073E86000030C03F84
:10097000C13FC23FC33F71086F2171080E3E860020
:100980000030C03FC13F0800F5007508031DD82C9A
:10099000750EF039750775072C3E86008701403FBC
:1009A000F000413FF100423FF200433FF3000800F6
:1009B000F001F101F201F3010800F500750EF039C4
:1009C00075077507303E86008701403FF000413FC4
:1009D000F100423FF200433FF3000430F336F20CE3
:1009E000F10CF00C890BEE2C08007108803AF20033
:1009F00080307202031DFE2C0130700203180800C3
:100A00007009F2007109F300F20A0319F30A72087F
:100A1000F0007308F10008004530F200F1007208A0
:100A20007102031C08007208F0001A250930F20751
:100A300045300E2D7008083E8600870181100800A1
:100A4000FB007B08031D2F2D7B08DD247308F900B4
:100A50007208F8007108F7007008F6000800F60147
:100A6000F701F801F9010800C7340334E234003417
:100A700088340134AE340634AE34063400344334A2
:100A800004341E3404342034003400340034F600BE
:100A90007608031D572D0930F000760807264B3ED7
:100AA00086008701403FF300413FF4000800F30156
:100AB000F401080000340034003400340034003401
:100AC0000034003400340034003400340034003486
:100AD000003400346434003482269030F000053055
:100AE000F1007C26B130F0000530F100912629306C
:100AF000F0000630F1008726D0257C2DF0008B1FFA
:100B0000852D8B1388258B17080070088825080011
:100B1000063E860087012008C03F2108C13F08002B
:100B20007008F100F2017208003A03199B2DA02D04
:100B3000A4019E26A12E7108003A0319982DA02D1C
:100B4000080022008C01393021008C003330230052
:100B50008C0024008C0121009517103022009D008C
:100B600008007008F100F2017208003A0319BB2D69
:100B7000C02DA401A82E7108003A0319B92DC02D6B
:100B800008001508C039133895000630200095007C
:100B9000E1000B118B12B030F0000630F100872E0F
:100BA0002000A201A20A4826003A03190034A62612
:100BB000AA262000A2000C25AB260134F3007308FE
:100BC000031D00340930F000730807264D3E8600EF
:100BD0008701010C013908000B1120006108950004
:100BE0005F0860040319080060088A005F080A00B3
:100BF00085310800F3007308031D08000930F00078
:100C0000730807264D3E8600870101140800F20094
:100C1000F10170087218F107F035F2367208031D01
:100C2000092E710808005A30F0008530F1001230AA
:100C3000F2002930F30168240030A82CF00070087D
:100C4000031900347008083E860087010108013945
:100C50000800A40A0B302402031C08000430220000
:100C60008C062000A4010800F400FA250930F000E9
:100C700074080726453EF0001A250800231C422E62
:100C8000A336452EB430A336A30623080F39080037
:100C9000D5015508DE22003A031D0034D50F01347A
:100CA000492ECE008B1F582E8B13EE218B17080078
:100CB0004E08EE29F50175083426F50A7508031D5E
:100CC00008005B2E7830210099009A0122009601DD
:100CD00008002508F000700803190800F0036B2EC7
:100CE000FE0012001E00FE0B712E00346400800115
:100CF0000131890B772E003471082000C400700880
:100D0000C3000800A12562269626C1259A2E7108E7
:100D1000E0007008DF00080021009D01D0309E0037
:100D200008007108C2007008C100080016302100D8
:100D3000970008005A2613260C258C2E6108950072
:100D400008000B118B1608002930882C00308F2BDF
:100D50008B1208000034A42E08000800080001349B
:020D6000080089
:020000040001F9
:04000E00FCFDFFFFF7
:00000001FF
